{
  "contractName": "Vaccinations",
  "abi": [
    {
      "constant": true,
      "inputs": [
        {
          "name": "",
          "type": "uint256"
        }
      ],
      "name": "petitions",
      "outputs": [
        {
          "name": "petitioner",
          "type": "address"
        },
        {
          "name": "name",
          "type": "string"
        },
        {
          "name": "votesReceived",
          "type": "uint8"
        },
        {
          "name": "added",
          "type": "bool"
        }
      ],
      "payable": false,
      "stateMutability": "view",
      "type": "function"
    },
    {
      "constant": true,
      "inputs": [
        {
          "name": "",
          "type": "uint256"
        }
      ],
      "name": "authorities",
      "outputs": [
        {
          "name": "",
          "type": "address"
        }
      ],
      "payable": false,
      "stateMutability": "view",
      "type": "function"
    },
    {
      "inputs": [
        {
          "name": "a1",
          "type": "address"
        },
        {
          "name": "a2",
          "type": "address"
        },
        {
          "name": "a3",
          "type": "address"
        }
      ],
      "payable": false,
      "stateMutability": "nonpayable",
      "type": "constructor"
    },
    {
      "constant": false,
      "inputs": [
        {
          "name": "_petitioner",
          "type": "address"
        }
      ],
      "name": "vote",
      "outputs": [],
      "payable": false,
      "stateMutability": "nonpayable",
      "type": "function"
    },
    {
      "constant": false,
      "inputs": [
        {
          "name": "_name",
          "type": "string"
        }
      ],
      "name": "submitPetition",
      "outputs": [],
      "payable": false,
      "stateMutability": "nonpayable",
      "type": "function"
    },
    {
      "constant": true,
      "inputs": [],
      "name": "viewPetitions",
      "outputs": [
        {
          "components": [
            {
              "name": "petitioner",
              "type": "address"
            },
            {
              "name": "name",
              "type": "string"
            },
            {
              "name": "votesReceived",
              "type": "uint8"
            },
            {
              "name": "voters",
              "type": "address[]"
            },
            {
              "name": "added",
              "type": "bool"
            }
          ],
          "name": "",
          "type": "tuple[]"
        }
      ],
      "payable": false,
      "stateMutability": "view",
      "type": "function"
    },
    {
      "constant": false,
      "inputs": [
        {
          "name": "petitioner",
          "type": "address"
        }
      ],
      "name": "removePetition",
      "outputs": [],
      "payable": false,
      "stateMutability": "nonpayable",
      "type": "function"
    },
    {
      "constant": true,
      "inputs": [
        {
          "name": "_voter",
          "type": "address"
        },
        {
          "name": "_voters",
          "type": "address[]"
        }
      ],
      "name": "checkIfVoted",
      "outputs": [
        {
          "name": "",
          "type": "bool"
        }
      ],
      "payable": false,
      "stateMutability": "pure",
      "type": "function"
    },
    {
      "constant": true,
      "inputs": [
        {
          "name": "_vacc",
          "type": "address"
        }
      ],
      "name": "checkIfVaccinationAuthority",
      "outputs": [
        {
          "name": "trust",
          "type": "bool"
        }
      ],
      "payable": false,
      "stateMutability": "view",
      "type": "function"
    },
    {
      "constant": false,
      "inputs": [
        {
          "name": "_id",
          "type": "string"
        },
        {
          "name": "_name",
          "type": "string"
        },
        {
          "name": "_gender",
          "type": "string"
        },
        {
          "name": "_nationality",
          "type": "string"
        },
        {
          "name": "_user_address",
          "type": "address"
        }
      ],
      "name": "registerUser",
      "outputs": [],
      "payable": false,
      "stateMutability": "nonpayable",
      "type": "function"
    },
    {
      "constant": false,
      "inputs": [
        {
          "name": "user_id",
          "type": "string"
        },
        {
          "name": "_vacName",
          "type": "string"
        },
        {
          "name": "_batchID",
          "type": "string"
        },
        {
          "name": "location",
          "type": "string"
        },
        {
          "name": "date",
          "type": "string"
        }
      ],
      "name": "addVaccination",
      "outputs": [],
      "payable": false,
      "stateMutability": "nonpayable",
      "type": "function"
    },
    {
      "constant": true,
      "inputs": [
        {
          "name": "user_id",
          "type": "string"
        }
      ],
      "name": "userExists",
      "outputs": [
        {
          "name": "",
          "type": "bool"
        }
      ],
      "payable": false,
      "stateMutability": "view",
      "type": "function"
    },
    {
      "constant": true,
      "inputs": [
        {
          "name": "user_id",
          "type": "string"
        }
      ],
      "name": "calculateHash",
      "outputs": [
        {
          "name": "",
          "type": "bytes32"
        }
      ],
      "payable": false,
      "stateMutability": "view",
      "type": "function"
    },
    {
      "constant": true,
      "inputs": [
        {
          "name": "user_id",
          "type": "string"
        }
      ],
      "name": "getVaccinationRecord",
      "outputs": [
        {
          "components": [
            {
              "name": "user_id",
              "type": "string"
            },
            {
              "name": "user_address",
              "type": "address"
            },
            {
              "name": "nationality",
              "type": "string"
            },
            {
              "name": "name",
              "type": "string"
            },
            {
              "name": "gender",
              "type": "string"
            },
            {
              "name": "createdBy",
              "type": "address"
            },
            {
              "name": "detailshash",
              "type": "bytes32"
            },
            {
              "components": [
                {
                  "name": "name",
                  "type": "string"
                },
                {
                  "name": "batch_id",
                  "type": "string"
                },
                {
                  "name": "addedBy",
                  "type": "address"
                },
                {
                  "name": "administrationDate",
                  "type": "string"
                },
                {
                  "name": "location",
                  "type": "string"
                }
              ],
              "name": "vaccinations",
              "type": "tuple[]"
            }
          ],
          "name": "",
          "type": "tuple"
        }
      ],
      "payable": false,
      "stateMutability": "view",
      "type": "function"
    },
    {
      "constant": true,
      "inputs": [
        {
          "name": "user_id",
          "type": "string"
        }
      ],
      "name": "getVaccinationHash",
      "outputs": [
        {
          "name": "",
          "type": "bytes32"
        }
      ],
      "payable": false,
      "stateMutability": "view",
      "type": "function"
    },
    {
      "constant": true,
      "inputs": [
        {
          "name": "user_id",
          "type": "string"
        }
      ],
      "name": "getVaccinationRecordPublic",
      "outputs": [
        {
          "name": "",
          "type": "string"
        }
      ],
      "payable": false,
      "stateMutability": "view",
      "type": "function"
    },
    {
      "constant": true,
      "inputs": [],
      "name": "getVaccinationAuthorities",
      "outputs": [
        {
          "name": "",
          "type": "address[]"
        }
      ],
      "payable": false,
      "stateMutability": "view",
      "type": "function"
    },
    {
      "constant": true,
      "inputs": [
        {
          "name": "_add",
          "type": "address"
        }
      ],
      "name": "getAuthorityName",
      "outputs": [
        {
          "name": "",
          "type": "string"
        }
      ],
      "payable": false,
      "stateMutability": "view",
      "type": "function"
    }
  ],
  "bytecode": "0x60806040523480156200001157600080fd5b5060405160608062004db38339810180604052620000339190810190620003d1565b60018390806001815401808255809150509060018203906000526020600020016000909192909190916101000a81548173ffffffffffffffffffffffffffffffffffffffff021916908373ffffffffffffffffffffffffffffffffffffffff1602179055505060018290806001815401808255809150509060018203906000526020600020016000909192909190916101000a81548173ffffffffffffffffffffffffffffffffffffffff021916908373ffffffffffffffffffffffffffffffffffffffff1602179055505060018190806001815401808255809150509060018203906000526020600020016000909192909190916101000a81548173ffffffffffffffffffffffffffffffffffffffff021916908373ffffffffffffffffffffffffffffffffffffffff160217905550506040805190810160405280600381526020017f4b454d00000000000000000000000000000000000000000000000000000000008152506000808573ffffffffffffffffffffffffffffffffffffffff1673ffffffffffffffffffffffffffffffffffffffff1681526020019081526020016000209080519060200190620001ee9291906200030c565b506040805190810160405280600581526020017f4149494d530000000000000000000000000000000000000000000000000000008152506000808473ffffffffffffffffffffffffffffffffffffffff1673ffffffffffffffffffffffffffffffffffffffff1681526020019081526020016000209080519060200190620002789291906200030c565b506040805190810160405280600281526020017f4a4a0000000000000000000000000000000000000000000000000000000000008152506000808373ffffffffffffffffffffffffffffffffffffffff1673ffffffffffffffffffffffffffffffffffffffff1681526020019081526020016000209080519060200190620003029291906200030c565b5050505062000447565b828054600181600116156101000203166002900490600052602060002090601f016020900481019282601f106200034f57805160ff191683800117855562000380565b8280016001018555821562000380579182015b828111156200037f57825182559160200191906001019062000362565b5b5090506200038f919062000393565b5090565b620003b891905b80821115620003b45760008160009055506001016200039a565b5090565b90565b6000620003c9825162000427565b905092915050565b600080600060608486031215620003e757600080fd5b6000620003f786828701620003bb565b93505060206200040a86828701620003bb565b92505060406200041d86828701620003bb565b9150509250925092565b600073ffffffffffffffffffffffffffffffffffffffff82169050919050565b61495c80620004576000396000f3006080604052600436106100f1576000357c0100000000000000000000000000000000000000000000000000000000900463ffffffff168063010ca754146100f65780631e8e47f1146101335780633ad50ded1461015e5780633d9b9ada1461019e578063494503d4146101db57806349f89b2e146102185780635fbb847f146102555780636dd7d8ea1461027e578063973378be146102a75780639e5d79b7146102d2578063a8cbcecd146102fb578063b2989f3b14610338578063b7c89fc014610375578063c34a43ff1461039e578063d29eab2b146103db578063e5e69caa14610404578063fddc968e14610441575b600080fd5b34801561010257600080fd5b5061011d60048036036101189190810190613b8a565b61047e565b60405161012a919061459d565b60405180910390f35b34801561013f57600080fd5b50610148610525565b6040516101559190614559565b60405180910390f35b34801561016a57600080fd5b5061018560048036036101809190810190613e0e565b6105b3565b604051610195949392919061450d565b60405180910390f35b3480156101aa57600080fd5b506101c560048036036101c09190810190613c07565b6106c4565b6040516101d291906145d3565b60405180910390f35b3480156101e757600080fd5b5061020260048036036101fd9190810190613e0e565b610e66565b60405161020f91906144f2565b60405180910390f35b34801561022457600080fd5b5061023f600480360361023a9190810190613c07565b610ea4565b60405161024c91906145b8565b60405180910390f35b34801561026157600080fd5b5061027c60048036036102779190810190613c48565b610f1c565b005b34801561028a57600080fd5b506102a560048036036102a09190810190613b8a565b6113e2565b005b3480156102b357600080fd5b506102bc61192a565b6040516102c9919061457b565b60405180910390f35b3480156102de57600080fd5b506102f960048036036102f49190810190613d1f565b611b48565b005b34801561030757600080fd5b50610322600480360361031d9190810190613c07565b611e1f565b60405161032f91906145b8565b60405180910390f35b34801561034457600080fd5b5061035f600480360361035a9190810190613c07565b6124d0565b60405161036c9190614715565b60405180910390f35b34801561038157600080fd5b5061039c60048036036103979190810190613b8a565b612e3c565b005b3480156103aa57600080fd5b506103c560048036036103c09190810190613bb3565b6130b6565b6040516103d2919061459d565b60405180910390f35b3480156103e757600080fd5b5061040260048036036103fd9190810190613c07565b613134565b005b34801561041057600080fd5b5061042b60048036036104269190810190613b8a565b6133ba565b60405161043891906145d3565b60405180910390f35b34801561044d57600080fd5b5061046860048036036104639190810190613c07565b61349a565b604051610475919061459d565b60405180910390f35b6000806000809150600090505b60018054905081101561051b576001818154811015156104a757fe5b9060005260206000200160009054906101000a900473ffffffffffffffffffffffffffffffffffffffff1673ffffffffffffffffffffffffffffffffffffffff168473ffffffffffffffffffffffffffffffffffffffff16141561050e576001915061051b565b808060010191505061048b565b8192505050919050565b606060018054806020026020016040519081016040528092919081815260200182805480156105a957602002820191906000526020600020905b8160009054906101000a900473ffffffffffffffffffffffffffffffffffffffff1673ffffffffffffffffffffffffffffffffffffffff168152602001906001019080831161055f575b5050505050905090565b6002818154811015156105c257fe5b90600052602060002090600502016000915090508060000160009054906101000a900473ffffffffffffffffffffffffffffffffffffffff1690806001018054600181600116156101000203166002900480601f0160208091040260200160405190810160405280929190818152602001828054600181600116156101000203166002900480156106945780601f1061066957610100808354040283529160200191610694565b820191906000526020600020905b81548152906001019060200180831161067757829003601f168201915b5050505050908060020160009054906101000a900460ff16908060040160009054906101000a900460ff16905084565b60608060006060806003866040518082805190602001908083835b60208310151561070457805182526020820191506020810190506020830392506106df565b6001836020036101000a03801982511681845116808217855250505050505090500191505090815260200160405180910390206000018054600181600116156101000203166002900480601f0160208091040260200160405190810160405280929190818152602001828054600181600116156101000203166002900480156107ce5780601f106107a3576101008083540402835291602001916107ce565b820191906000526020600020905b8154815290600101906020018083116107b157829003601f168201915b50505050509350600084511415151561081c576040517f08c379a000000000000000000000000000000000000000000000000000000000815260040161081390614615565b60405180910390fd5b6003866040518082805190602001908083835b602083101515610854578051825260208201915060208101905060208303925061082f565b6001836020036101000a038019825116818451168082178552505050505050905001915050908152602001604051809103902060070180549050925060206040519081016040528060008152509150602060405190810160405280600081525090506000831115610b14576003866040518082805190602001908083835b6020831015156108f757805182526020820191506020810190506020830392506108d2565b6001836020036101000a03801982511681845116808217855250505050505090500191505090815260200160405180910390206007016001840381548110151561093d57fe5b90600052602060002090600502016000018054600181600116156101000203166002900480601f0160208091040260200160405190810160405280929190818152602001828054600181600116156101000203166002900480156109e25780601f106109b7576101008083540402835291602001916109e2565b820191906000526020600020905b8154815290600101906020018083116109c557829003601f168201915b505050505091506003866040518082805190602001908083835b602083101515610a2157805182526020820191506020810190506020830392506109fc565b6001836020036101000a038019825116818451168082178552505050505050905001915050908152602001604051809103902060070160018403815481101515610a6757fe5b90600052602060002090600502016003018054600181600116156101000203166002900480601f016020809104026020016040519081016040528092919081815260200182805460018160011615610100020316600290048015610b0c5780601f10610ae157610100808354040283529160200191610b0c565b820191906000526020600020905b815481529060010190602001808311610aef57829003601f168201915b505050505090505b856003876040518082805190602001908083835b602083101515610b4d5780518252602082019150602081019050602083039250610b28565b6001836020036101000a03801982511681845116808217855250505050505090500191505090815260200160405180910390206003016003886040518082805190602001908083835b602083101515610bbb5780518252602082019150602081019050602083039250610b96565b6001836020036101000a038019825116818451168082178552505050505050905001915050908152602001604051809103902060020184846040516020018086805190602001908083835b602083101515610c2b5780518252602082019150602081019050602083039250610c06565b6001836020036101000a038019825116818451168082178552505050505050905001807f2c0000000000000000000000000000000000000000000000000000000000000081525060010185805460018160011615610100020316600290048015610ccc5780601f10610caa576101008083540402835291820191610ccc565b820191906000526020600020905b815481529060010190602001808311610cb8575b5050807f2c0000000000000000000000000000000000000000000000000000000000000081525060010184805460018160011615610100020316600290048015610d4d5780601f10610d2b576101008083540402835291820191610d4d565b820191906000526020600020905b815481529060010190602001808311610d39575b5050807f2c0000000000000000000000000000000000000000000000000000000000000081525060010183805190602001908083835b602083101515610da85780518252602082019150602081019050602083039250610d83565b6001836020036101000a038019825116818451168082178552505050505050905001807f2c0000000000000000000000000000000000000000000000000000000000000081525060010182805190602001908083835b602083101515610e235780518252602082019150602081019050602083039250610dfe565b6001836020036101000a03801982511681845116808217855250505050505090500195505050505050604051602081830303815290604052945050505050919050565b600181815481101515610e7557fe5b906000526020600020016000915054906101000a900473ffffffffffffffffffffffffffffffffffffffff1681565b60006003826040518082805190602001908083835b602083101515610ede5780518252602082019150602081019050602083039250610eb9565b6001836020036101000a0380198251168184511680821785525050505050509050019150509081526020016040518091039020600601549050919050565b610f253361047e565b1515610f66576040517f08c379a0000000000000000000000000000000000000000000000000000000008152600401610f5d90614695565b60405180910390fd5b60001515610f738661349a565b1515141515610fb7576040517f08c379a0000000000000000000000000000000000000000000000000000000008152600401610fae906145f5565b60405180910390fd5b6004859080600181540180825580915050906001820390600052602060002001600090919290919091509080519060200190610ff49291906135c6565b5050836003866040518082805190602001908083835b60208310151561102f578051825260208201915060208101905060208303925061100a565b6001836020036101000a038019825116818451168082178552505050505050905001915050908152602001604051809103902060030190805190602001906110789291906135c6565b50826003866040518082805190602001908083835b6020831015156110b2578051825260208201915060208101905060208303925061108d565b6001836020036101000a038019825116818451168082178552505050505050905001915050908152602001604051809103902060040190805190602001906110fb9291906135c6565b50846003866040518082805190602001908083835b6020831015156111355780518252602082019150602081019050602083039250611110565b6001836020036101000a0380198251168184511680821785525050505050509050019150509081526020016040518091039020600001908051906020019061117e9291906135c6565b50336003866040518082805190602001908083835b6020831015156111b85780518252602082019150602081019050602083039250611193565b6001836020036101000a038019825116818451168082178552505050505050905001915050908152602001604051809103902060050160006101000a81548173ffffffffffffffffffffffffffffffffffffffff021916908373ffffffffffffffffffffffffffffffffffffffff160217905550816003866040518082805190602001908083835b6020831015156112655780518252602082019150602081019050602083039250611240565b6001836020036101000a038019825116818451168082178552505050505050905001915050908152602001604051809103902060020190805190602001906112ae9291906135c6565b50806003866040518082805190602001908083835b6020831015156112e857805182526020820191506020810190506020830392506112c3565b6001836020036101000a038019825116818451168082178552505050505050905001915050908152602001604051809103902060010160006101000a81548173ffffffffffffffffffffffffffffffffffffffff021916908373ffffffffffffffffffffffffffffffffffffffff16021790555061136585611e1f565b6003866040518082805190602001908083835b60208310151561139d5780518252602082019150602081019050602083039250611378565b6001836020036101000a038019825116818451168082178552505050505050905001915050908152602001604051809103902060060181600019169055505050505050565b60006113ed3361047e565b151561142e576040517f08c379a000000000000000000000000000000000000000000000000000000000815260040161142590614695565b60405180910390fd5b600090505b600280549050811015611926578173ffffffffffffffffffffffffffffffffffffffff1660028281548110151561146657fe5b906000526020600020906005020160000160009054906101000a900473ffffffffffffffffffffffffffffffffffffffff1673ffffffffffffffffffffffffffffffffffffffff1614156116f15760001515611566336002848154811015156114cb57fe5b906000526020600020906005020160030180548060200260200160405190810160405280929190818152602001828054801561155c57602002820191906000526020600020905b8160009054906101000a900473ffffffffffffffffffffffffffffffffffffffff1673ffffffffffffffffffffffffffffffffffffffff1681526020019060010190808311611512575b50505050506130b6565b15151415156115aa576040517f08c379a00000000000000000000000000000000000000000000000000000000081526004016115a1906146b5565b60405180910390fd5b600015156002828154811015156115bd57fe5b906000526020600020906005020160040160009054906101000a900460ff161515141515611620576040517f08c379a000000000000000000000000000000000000000000000000000000000815260040161161790614675565b60405180910390fd5b600160028281548110151561163157fe5b906000526020600020906005020160020160008282829054906101000a900460ff160192506101000a81548160ff021916908360ff16021790555060028181548110151561167b57fe5b90600052602060002090600502016003013390806001815401808255809150509060018203906000526020600020016000909192909190916101000a81548173ffffffffffffffffffffffffffffffffffffffff021916908373ffffffffffffffffffffffffffffffffffffffff160217905550505b6001600260018054905081151561170457fe5b040160028281548110151561171557fe5b906000526020600020906005020160020160009054906101000a900460ff1660ff161015801561177657506000151560028281548110151561175357fe5b906000526020600020906005020160040160009054906101000a900460ff161515145b1561191957600160028281548110151561178c57fe5b906000526020600020906005020160000160009054906101000a900473ffffffffffffffffffffffffffffffffffffffff1690806001815401808255809150509060018203906000526020600020016000909192909190916101000a81548173ffffffffffffffffffffffffffffffffffffffff021916908373ffffffffffffffffffffffffffffffffffffffff1602179055505060028181548110151561183057fe5b906000526020600020906005020160010160008060028481548110151561185357fe5b906000526020600020906005020160000160009054906101000a900473ffffffffffffffffffffffffffffffffffffffff1673ffffffffffffffffffffffffffffffffffffffff1673ffffffffffffffffffffffffffffffffffffffff16815260200190815260200160002090805460018160011615610100020316600290046118de929190613646565b5060016002828154811015156118f057fe5b906000526020600020906005020160040160006101000a81548160ff0219169083151502179055505b8080600101915050611433565b5050565b60606002805480602002602001604051908101604052809291908181526020016000905b82821015611b3f578382906000526020600020906005020160a060405190810160405290816000820160009054906101000a900473ffffffffffffffffffffffffffffffffffffffff1673ffffffffffffffffffffffffffffffffffffffff1673ffffffffffffffffffffffffffffffffffffffff168152602001600182018054600181600116156101000203166002900480601f016020809104026020016040519081016040528092919081815260200182805460018160011615610100020316600290048015611a615780601f10611a3657610100808354040283529160200191611a61565b820191906000526020600020905b815481529060010190602001808311611a4457829003601f168201915b505050505081526020016002820160009054906101000a900460ff1660ff1660ff16815260200160038201805480602002602001604051908101604052809291908181526020018280548015611b0c57602002820191906000526020600020905b8160009054906101000a900473ffffffffffffffffffffffffffffffffffffffff1673ffffffffffffffffffffffffffffffffffffffff1681526020019060010190808311611ac2575b505050505081526020016004820160009054906101000a900460ff1615151515815250508152602001906001019061194e565b50505050905090565b611b506136cd565b611b593361047e565b1515611b9a576040517f08c379a0000000000000000000000000000000000000000000000000000000008152600401611b9190614695565b60405180910390fd5b611ba38661349a565b1515611be4576040517f08c379a0000000000000000000000000000000000000000000000000000000008152600401611bdb906146d5565b60405180910390fd5b84816000018190525083816020018190525082816080018190525081816060018190525033816040019073ffffffffffffffffffffffffffffffffffffffff16908173ffffffffffffffffffffffffffffffffffffffff16815250506003866040518082805190602001908083835b602083101515611c785780518252602082019150602081019050602083039250611c53565b6001836020036101000a038019825116818451168082178552505050505050905001915050908152602001604051809103902060070181908060018154018082558091505090600182039060005260206000209060050201600090919290919091506000820151816000019080519060200190611cf6929190613713565b506020820151816001019080519060200190611d13929190613713565b5060408201518160020160006101000a81548173ffffffffffffffffffffffffffffffffffffffff021916908373ffffffffffffffffffffffffffffffffffffffff1602179055506060820151816003019080519060200190611d77929190613713565b506080820151816004019080519060200190611d94929190613713565b50505050611da186611e1f565b6003876040518082805190602001908083835b602083101515611dd95780518252602082019150602081019050602083039250611db4565b6001836020036101000a03801982511681845116808217855250505050505090500191505090815260200160405180910390206006018160001916905550505050505050565b6000806060806003856040518082805190602001908083835b602083101515611e5d5780518252602082019150602081019050602083039250611e38565b6001836020036101000a03801982511681845116808217855250505050505090500191505090815260200160405180910390206007018054905092506020604051908101604052806000815250915060206040519081016040528060008152509050600083111561211d576003856040518082805190602001908083835b602083101515611f005780518252602082019150602081019050602083039250611edb565b6001836020036101000a038019825116818451168082178552505050505050905001915050908152602001604051809103902060070160018403815481101515611f4657fe5b90600052602060002090600502016000018054600181600116156101000203166002900480601f016020809104026020016040519081016040528092919081815260200182805460018160011615610100020316600290048015611feb5780601f10611fc057610100808354040283529160200191611feb565b820191906000526020600020905b815481529060010190602001808311611fce57829003601f168201915b505050505091506003856040518082805190602001908083835b60208310151561202a5780518252602082019150602081019050602083039250612005565b6001836020036101000a03801982511681845116808217855250505050505090500191505090815260200160405180910390206007016001840381548110151561207057fe5b90600052602060002090600502016003018054600181600116156101000203166002900480601f0160208091040260200160405190810160405280929190818152602001828054600181600116156101000203166002900480156121155780601f106120ea57610100808354040283529160200191612115565b820191906000526020600020905b8154815290600101906020018083116120f857829003601f168201915b505050505090505b846003866040518082805190602001908083835b6020831015156121565780518252602082019150602081019050602083039250612131565b6001836020036101000a03801982511681845116808217855250505050505090500191505090815260200160405180910390206003016003876040518082805190602001908083835b6020831015156121c4578051825260208201915060208101905060208303925061219f565b6001836020036101000a038019825116818451168082178552505050505050905001915050908152602001604051809103902060020184846040516020018086805190602001908083835b602083101515612234578051825260208201915060208101905060208303925061220f565b6001836020036101000a038019825116818451168082178552505050505050905001807f2c00000000000000000000000000000000000000000000000000000000000000815250600101858054600181600116156101000203166002900480156122d55780601f106122b35761010080835404028352918201916122d5565b820191906000526020600020905b8154815290600101906020018083116122c1575b5050807f2c00000000000000000000000000000000000000000000000000000000000000815250600101848054600181600116156101000203166002900480156123565780601f10612334576101008083540402835291820191612356565b820191906000526020600020905b815481529060010190602001808311612342575b5050807f2c0000000000000000000000000000000000000000000000000000000000000081525060010183805190602001908083835b6020831015156123b1578051825260208201915060208101905060208303925061238c565b6001836020036101000a038019825116818451168082178552505050505050905001807f2c0000000000000000000000000000000000000000000000000000000000000081525060010182805190602001908083835b60208310151561242c5780518252602082019150602081019050602083039250612407565b6001836020036101000a038019825116818451168082178552505050505050905001955050505050506040516020818303038152906040526040518082805190602001908083835b6020831015156124995780518252602082019150602081019050602083039250612474565b6001836020036101000a03801982511681845116808217855250505050505090500191505060405180910390209350505050919050565b6124d8613793565b60606003836040518082805190602001908083835b60208310151561251257805182526020820191506020810190506020830392506124ed565b6001836020036101000a038019825116818451168082178552505050505050905001915050908152602001604051809103902060010160009054906101000a900473ffffffffffffffffffffffffffffffffffffffff1673ffffffffffffffffffffffffffffffffffffffff163373ffffffffffffffffffffffffffffffffffffffff1614806125a757506125a63361047e565b5b15156125e8576040517f08c379a00000000000000000000000000000000000000000000000000000000081526004016125df90614635565b60405180910390fd5b6003836040518082805190602001908083835b60208310151561262057805182526020820191506020810190506020830392506125fb565b6001836020036101000a03801982511681845116808217855250505050505090500191505090815260200160405180910390206000018054600181600116156101000203166002900480601f0160208091040260200160405190810160405280929190818152602001828054600181600116156101000203166002900480156126ea5780601f106126bf576101008083540402835291602001916126ea565b820191906000526020600020905b8154815290600101906020018083116126cd57829003601f168201915b505050505090506000815114151515612738576040517f08c379a000000000000000000000000000000000000000000000000000000000815260040161272f90614615565b60405180910390fd5b6003836040518082805190602001908083835b602083101515612770578051825260208201915060208101905060208303925061274b565b6001836020036101000a03801982511681845116808217855250505050505090500191505090815260200160405180910390206101006040519081016040529081600082018054600181600116156101000203166002900480601f0160208091040260200160405190810160405280929190818152602001828054600181600116156101000203166002900480156128495780601f1061281e57610100808354040283529160200191612849565b820191906000526020600020905b81548152906001019060200180831161282c57829003601f168201915b505050505081526020016001820160009054906101000a900473ffffffffffffffffffffffffffffffffffffffff1673ffffffffffffffffffffffffffffffffffffffff1673ffffffffffffffffffffffffffffffffffffffff168152602001600282018054600181600116156101000203166002900480601f0160208091040260200160405190810160405280929190818152602001828054600181600116156101000203166002900480156129415780601f1061291657610100808354040283529160200191612941565b820191906000526020600020905b81548152906001019060200180831161292457829003601f168201915b50505050508152602001600382018054600181600116156101000203166002900480601f0160208091040260200160405190810160405280929190818152602001828054600181600116156101000203166002900480156129e35780601f106129b8576101008083540402835291602001916129e3565b820191906000526020600020905b8154815290600101906020018083116129c657829003601f168201915b50505050508152602001600482018054600181600116156101000203166002900480601f016020809104026020016040519081016040528092919081815260200182805460018160011615610100020316600290048015612a855780601f10612a5a57610100808354040283529160200191612a85565b820191906000526020600020905b815481529060010190602001808311612a6857829003601f168201915b505050505081526020016005820160009054906101000a900473ffffffffffffffffffffffffffffffffffffffff1673ffffffffffffffffffffffffffffffffffffffff1673ffffffffffffffffffffffffffffffffffffffff16815260200160068201546000191660001916815260200160078201805480602002602001604051908101604052809291908181526020016000905b82821015612e2c578382906000526020600020906005020160a06040519081016040529081600082018054600181600116156101000203166002900480601f016020809104026020016040519081016040528092919081815260200182805460018160011615610100020316600290048015612bd85780601f10612bad57610100808354040283529160200191612bd8565b820191906000526020600020905b815481529060010190602001808311612bbb57829003601f168201915b50505050508152602001600182018054600181600116156101000203166002900480601f016020809104026020016040519081016040528092919081815260200182805460018160011615610100020316600290048015612c7a5780601f10612c4f57610100808354040283529160200191612c7a565b820191906000526020600020905b815481529060010190602001808311612c5d57829003601f168201915b505050505081526020016002820160009054906101000a900473ffffffffffffffffffffffffffffffffffffffff1673ffffffffffffffffffffffffffffffffffffffff1673ffffffffffffffffffffffffffffffffffffffff168152602001600382018054600181600116156101000203166002900480601f016020809104026020016040519081016040528092919081815260200182805460018160011615610100020316600290048015612d725780601f10612d4757610100808354040283529160200191612d72565b820191906000526020600020905b815481529060010190602001808311612d5557829003601f168201915b50505050508152602001600482018054600181600116156101000203166002900480601f016020809104026020016040519081016040528092919081815260200182805460018160011615610100020316600290048015612e145780601f10612de957610100808354040283529160200191612e14565b820191906000526020600020905b815481529060010190602001808311612df757829003601f168201915b50505050508152505081526020019060010190612b1b565b5050505081525050915050919050565b60008090505b6002805490508110156130b2578173ffffffffffffffffffffffffffffffffffffffff16600282815481101515612e7557fe5b906000526020600020906005020160000160009054906101000a900473ffffffffffffffffffffffffffffffffffffffff1673ffffffffffffffffffffffffffffffffffffffff1614156130a5576002600160028054905003815481101515612eda57fe5b9060005260206000209060050201600282815481101515612ef757fe5b90600052602060002090600502016000820160009054906101000a900473ffffffffffffffffffffffffffffffffffffffff168160000160006101000a81548173ffffffffffffffffffffffffffffffffffffffff021916908373ffffffffffffffffffffffffffffffffffffffff16021790555060018201816001019080546001816001161561010002031660029004612f93929190613808565b506002820160009054906101000a900460ff168160020160006101000a81548160ff021916908360ff1602179055506003820181600301908054612fd892919061388f565b506004820160009054906101000a900460ff168160040160006101000a81548160ff021916908315150217905550905050600260016002805490500381548110151561302057fe5b9060005260206000209060050201600080820160006101000a81549073ffffffffffffffffffffffffffffffffffffffff021916905560018201600061306691906138e1565b6002820160006101000a81549060ff021916905560038201600061308a9190613929565b6004820160006101000a81549060ff021916905550506130b2565b8080600101915050612e42565b5050565b6000806000809150600090505b8351811015613129578473ffffffffffffffffffffffffffffffffffffffff1684828151811015156130f157fe5b9060200190602002015173ffffffffffffffffffffffffffffffffffffffff16141561311c57600191505b80806001019150506130c3565b819250505092915050565b600061313e61394a565b600091505b60028054905082101561320c573373ffffffffffffffffffffffffffffffffffffffff1660028381548110151561317657fe5b906000526020600020906005020160000160009054906101000a900473ffffffffffffffffffffffffffffffffffffffff1673ffffffffffffffffffffffffffffffffffffffff1614156131ff576040517f08c379a00000000000000000000000000000000000000000000000000000000081526004016131f6906146f5565b60405180910390fd5b8180600101925050613143565b600015156132193361047e565b151514151561325d576040517f08c379a000000000000000000000000000000000000000000000000000000000815260040161325490614655565b60405180910390fd5b33816000019073ffffffffffffffffffffffffffffffffffffffff16908173ffffffffffffffffffffffffffffffffffffffff16815250506000816040019060ff16908160ff168152505082816020018190525060008160800190151590811515815250506002819080600181540180825580915050906001820390600052602060002090600502016000909192909190915060008201518160000160006101000a81548173ffffffffffffffffffffffffffffffffffffffff021916908373ffffffffffffffffffffffffffffffffffffffff1602179055506020820151816001019080519060200190613353929190613713565b5060408201518160020160006101000a81548160ff021916908360ff1602179055506060820151816003019080519060200190613391929190613995565b5060808201518160040160006101000a81548160ff021916908315150217905550505050505050565b60606000808373ffffffffffffffffffffffffffffffffffffffff1673ffffffffffffffffffffffffffffffffffffffff1681526020019081526020016000208054600181600116156101000203166002900480601f01602080910402602001604051908101604052809291908181526020018280546001816001161561010002031660029004801561348e5780601f106134635761010080835404028352916020019161348e565b820191906000526020600020905b81548152906001019060200180831161347157829003601f168201915b50505050509050919050565b6000806000809150600090505b6004805490508110156135bc576004818154811015156134c357fe5b9060005260206000200160405180828054600181600116156101000203166002900480156135285780601f10613506576101008083540402835291820191613528565b820191906000526020600020905b815481529060010190602001808311613514575b5050915050604051809103902060001916846040518082805190602001908083835b60208310151561356f578051825260208201915060208101905060208303925061354a565b6001836020036101000a03801982511681845116808217855250505050505090500191505060405180910390206000191614156135af57600191506135bc565b80806001019150506134a7565b8192505050919050565b828054600181600116156101000203166002900490600052602060002090601f016020900481019282601f1061360757805160ff1916838001178555613635565b82800160010185558215613635579182015b82811115613634578251825591602001919060010190613619565b5b5090506136429190613a1f565b5090565b828054600181600116156101000203166002900490600052602060002090601f016020900481019282601f1061367f57805485556136bc565b828001600101855582156136bc57600052602060002091601f016020900482015b828111156136bb5782548255916001019190600101906136a0565b5b5090506136c99190613a1f565b5090565b60a0604051908101604052806060815260200160608152602001600073ffffffffffffffffffffffffffffffffffffffff16815260200160608152602001606081525090565b828054600181600116156101000203166002900490600052602060002090601f016020900481019282601f1061375457805160ff1916838001178555613782565b82800160010185558215613782579182015b82811115613781578251825591602001919060010190613766565b5b50905061378f9190613a1f565b5090565b6101006040519081016040528060608152602001600073ffffffffffffffffffffffffffffffffffffffff168152602001606081526020016060815260200160608152602001600073ffffffffffffffffffffffffffffffffffffffff16815260200160008019168152602001606081525090565b828054600181600116156101000203166002900490600052602060002090601f016020900481019282601f10613841578054855561387e565b8280016001018555821561387e57600052602060002091601f016020900482015b8281111561387d578254825591600101919060010190613862565b5b50905061388b9190613a1f565b5090565b8280548282559060005260206000209081019282156138d05760005260206000209182015b828111156138cf5782548255916001019190600101906138b4565b5b5090506138dd9190613a44565b5090565b50805460018160011615610100020316600290046000825580601f106139075750613926565b601f0160209004906000526020600020908101906139259190613a1f565b5b50565b50805460008255906000526020600020908101906139479190613a1f565b50565b60a060405190810160405280600073ffffffffffffffffffffffffffffffffffffffff16815260200160608152602001600060ff168152602001606081526020016000151581525090565b828054828255906000526020600020908101928215613a0e579160200282015b82811115613a0d5782518260006101000a81548173ffffffffffffffffffffffffffffffffffffffff021916908373ffffffffffffffffffffffffffffffffffffffff160217905550916020019190600101906139b5565b5b509050613a1b9190613a44565b5090565b613a4191905b80821115613a3d576000816000905550600101613a25565b5090565b90565b613a8491905b80821115613a8057600081816101000a81549073ffffffffffffffffffffffffffffffffffffffff021916905550600101613a4a565b5090565b90565b6000613a9382356148a5565b905092915050565b600082601f8301121515613aae57600080fd5b8135613ac1613abc82614764565b614737565b91508181835260208401935060208101905083856020840282011115613ae657600080fd5b60005b83811015613b165781613afc8882613a87565b845260208401935060208301925050600181019050613ae9565b5050505092915050565b600082601f8301121515613b3357600080fd5b8135613b46613b418261478c565b614737565b91508082526020830160208301858383011115613b6257600080fd5b613b6d8382846148cf565b50505092915050565b6000613b8282356148c5565b905092915050565b600060208284031215613b9c57600080fd5b6000613baa84828501613a87565b91505092915050565b60008060408385031215613bc657600080fd5b6000613bd485828601613a87565b925050602083013567ffffffffffffffff811115613bf157600080fd5b613bfd85828601613a9b565b9150509250929050565b600060208284031215613c1957600080fd5b600082013567ffffffffffffffff811115613c3357600080fd5b613c3f84828501613b20565b91505092915050565b600080600080600060a08688031215613c6057600080fd5b600086013567ffffffffffffffff811115613c7a57600080fd5b613c8688828901613b20565b955050602086013567ffffffffffffffff811115613ca357600080fd5b613caf88828901613b20565b945050604086013567ffffffffffffffff811115613ccc57600080fd5b613cd888828901613b20565b935050606086013567ffffffffffffffff811115613cf557600080fd5b613d0188828901613b20565b9250506080613d1288828901613a87565b9150509295509295909350565b600080600080600060a08688031215613d3757600080fd5b600086013567ffffffffffffffff811115613d5157600080fd5b613d5d88828901613b20565b955050602086013567ffffffffffffffff811115613d7a57600080fd5b613d8688828901613b20565b945050604086013567ffffffffffffffff811115613da357600080fd5b613daf88828901613b20565b935050606086013567ffffffffffffffff811115613dcc57600080fd5b613dd888828901613b20565b925050608086013567ffffffffffffffff811115613df557600080fd5b613e0188828901613b20565b9150509295509295909350565b600060208284031215613e2057600080fd5b6000613e2e84828501613b76565b91505092915050565b613e4081614862565b82525050565b6000613e51826147f7565b808452602084019350613e63836147c5565b60005b82811015613e9557613e79868351613e37565b613e828261483b565b9150602086019550600181019050613e66565b50849250505092915050565b6000613eac826147ec565b808452602084019350613ebe836147b8565b60005b82811015613ef057613ed4868351613e37565b613edd8261482e565b9150602086019550600181019050613ec1565b50849250505092915050565b6000613f0782614802565b80845260208401935083602082028501613f20856147d2565b60005b84811015613f59578383038852613f3b83835161430f565b9250613f4682614848565b9150602088019750600181019050613f23565b508196508694505050505092915050565b6000613f758261480d565b80845260208401935083602082028501613f8e856147df565b60005b84811015613fc7578383038852613fa9838351614458565b9250613fb482614855565b9150602088019750600181019050613f91565b508196508694505050505092915050565b613fe181614882565b82525050565b613ff08161488e565b82525050565b600061400182614823565b8084526140158160208601602086016148de565b61401e81614911565b602085010191505092915050565b600061403782614818565b80845261404b8160208601602086016148de565b61405481614911565b602085010191505092915050565b6000602382527f5265636f726420616c72656164792065786973747320666f722074686973207560208301527f73657200000000000000000000000000000000000000000000000000000000006040830152606082019050919050565b6000601f82527f76616363696e6174696f6e207265636f726420646f65736e74206578697374006020830152604082019050919050565b6000603182527f4f6e6c79207468652075736572207468656d73656c766573206f72206120564160208301527f2063616e20766965772064657461696c730000000000000000000000000000006040830152606082019050919050565b6000601d82527f596f752061726520616c726561647920616e20617574686f72697479210000006020830152604082019050919050565b6000602482527f5468657927726520616c726561647920616464656420746f20617574686f726960208301527f74696573000000000000000000000000000000000000000000000000000000006040830152606082019050919050565b6000602882527f4f6e6c792056616363696e6174696f6e20417574686f7269746965732061726560208301527f20616c6c6f7765640000000000000000000000000000000000000000000000006040830152606082019050919050565b6000601d82527f596f7527766520616c726561647920766f74656420666f72207468656d0000006020830152604082019050919050565b6000601782527f55736572206e6f742079657420726567697374657265640000000000000000006020830152604082019050919050565b6000602582527f596f7520616c7265616479206861766520612070656e64696e6720612070657460208301527f6974696f6e0000000000000000000000000000000000000000000000000000006040830152606082019050919050565b600060a0830160008301516143276000860182613e37565b506020830151848203602086015261433f828261402c565b915050604083015161435460408601826144e3565b506060830151848203606086015261436c8282613ea1565b91505060808301516143816080860182613fd8565b508091505092915050565b60006101008301600083015184820360008601526143aa828261402c565b91505060208301516143bf6020860182613e37565b50604083015184820360408601526143d7828261402c565b915050606083015184820360608601526143f1828261402c565b9150506080830151848203608086015261440b828261402c565b91505060a083015161442060a0860182613e37565b5060c083015161443360c0860182613fe7565b5060e083015184820360e086015261444b8282613f6a565b9150508091505092915050565b600060a0830160008301518482036000860152614475828261402c565b9150506020830151848203602086015261448f828261402c565b91505060408301516144a46040860182613e37565b50606083015184820360608601526144bc828261402c565b915050608083015184820360808601526144d6828261402c565b9150508091505092915050565b6144ec81614898565b82525050565b60006020820190506145076000830184613e37565b92915050565b60006080820190506145226000830187613e37565b8181036020830152614534818661402c565b905061454360408301856144e3565b6145506060830184613fd8565b95945050505050565b600060208201905081810360008301526145738184613e46565b905092915050565b600060208201905081810360008301526145958184613efc565b905092915050565b60006020820190506145b26000830184613fd8565b92915050565b60006020820190506145cd6000830184613fe7565b92915050565b600060208201905081810360008301526145ed8184613ff6565b905092915050565b6000602082019050818103600083015261460e81614062565b9050919050565b6000602082019050818103600083015261462e816140bf565b9050919050565b6000602082019050818103600083015261464e816140f6565b9050919050565b6000602082019050818103600083015261466e81614153565b9050919050565b6000602082019050818103600083015261468e8161418a565b9050919050565b600060208201905081810360008301526146ae816141e7565b9050919050565b600060208201905081810360008301526146ce81614244565b9050919050565b600060208201905081810360008301526146ee8161427b565b9050919050565b6000602082019050818103600083015261470e816142b2565b9050919050565b6000602082019050818103600083015261472f818461438c565b905092915050565b6000604051905081810181811067ffffffffffffffff8211171561475a57600080fd5b8060405250919050565b600067ffffffffffffffff82111561477b57600080fd5b602082029050602081019050919050565b600067ffffffffffffffff8211156147a357600080fd5b601f19601f8301169050602081019050919050565b6000602082019050919050565b6000602082019050919050565b6000602082019050919050565b6000602082019050919050565b600081519050919050565b600081519050919050565b600081519050919050565b600081519050919050565b600081519050919050565b600081519050919050565b6000602082019050919050565b6000602082019050919050565b6000602082019050919050565b6000602082019050919050565b600073ffffffffffffffffffffffffffffffffffffffff82169050919050565b60008115159050919050565b6000819050919050565b600060ff82169050919050565b600073ffffffffffffffffffffffffffffffffffffffff82169050919050565b6000819050919050565b82818337600083830152505050565b60005b838110156148fc5780820151818401526020810190506148e1565b8381111561490b576000848401525b50505050565b6000601f19601f83011690509190505600a265627a7a7230582079e3ba808d12352d5bdb2860823cc921b3cdf2dc5d0c0544271e4ccc0132c7dd6c6578706572696d656e74616cf50037",
  "source": "// SPDX-License-Identifier: MIT\npragma solidity >=0.4.22;\npragma experimental ABIEncoderV2;\n\ncontract Vaccinations {\n\n    struct vaccine {\n        string name;\n        string batch_id;\n        address addedBy;\n        string administrationDate;\n        string location;\n    }\n    \n    struct vaccination_record {\n        string user_id;\n        address user_address;\n        string nationality;\n        string name;\n        string gender; //1 for female, 0 for male\n        address createdBy;\n        bytes32 detailshash;\n        vaccine[] vaccinations;\n    }\n    \n    struct petition {\n        //those who want to become a vaccination authority\n        address petitioner;\n        string name;\n        uint8 votesReceived;\n        address[] voters;\n        bool added;\n    }\n    \n    mapping(address => string)  authority_name;\n    address[] public authorities;\n    petition[] public petitions;\n    //vaccination_record[] public vaccinationRecords;\n    mapping(string => vaccination_record) records;\n    string[] registered_users;\n\n    modifier onlyVaccinationAuthority() {\n        require(\n            checkIfVaccinationAuthority(msg.sender),\n            \"Only Vaccination Authorities are allowed\"\n        );\n        _;\n    }\n\n    constructor(address a1, address a2, address a3) {\n        authorities.push(a1);\n        authorities.push(a2);\n        authorities.push(a3);\n        authority_name[a1] = \"KEM\";\n        authority_name[a2] = \"AIIMS\";\n        authority_name[a3] = \"JJ\";\n    }\n\n    function vote(address _petitioner) public onlyVaccinationAuthority {\n        for (uint i = 0; i < petitions.length; i++) {\n            //add vote of the person being voted for\n            if (petitions[i].petitioner == _petitioner) {\n                require(\n                    checkIfVoted(msg.sender, petitions[i].voters) == false,\n                    \"You've already voted for them\"\n                );\n                require(\n                    petitions[i].added == false,\n                    \"They're already added to authorities\"\n                );\n                petitions[i].votesReceived += 1;\n                petitions[i].voters.push(msg.sender);\n            }\n            //next check if any votes for any petitions have reached the threshold, if so they should be added to authorities\n            if (\n                petitions[i].votesReceived >= authorities.length / 2 + 1 &&\n                petitions[i].added == false\n            ) {\n                authorities.push(petitions[i].petitioner); //add to trusted\n                authority_name[petitions[i].petitioner] = petitions[i].name;\n                petitions[i].added = true;\n            }\n        }\n    }\n\n    //call this function in order to submit a petition if you want to become a Vaccination Authority\n    function submitPetition(string memory _name) public {\n        for (uint i = 0; i < petitions.length; i++) {\n            if (petitions[i].petitioner == msg.sender) {\n                revert(\"You already have a pending a petition\");\n            }\n        }\n        require(\n            checkIfVaccinationAuthority(msg.sender) == false,\n            \"You are already an authority!\"\n        );\n        petition memory temp;\n        temp.petitioner = msg.sender;\n        temp.votesReceived = 0;\n        temp.name = _name;\n        temp.added = false;\n        petitions.push(temp);\n    }\n\n    function viewPetitions() public view returns (petition[] memory) {\n        return petitions;\n    }\n\n    //call this function to remove a petition from petitioner array\n    function removePetition(address petitioner) public {\n        for (uint i = 0; i < petitions.length; i++) {\n            if (petitions[i].petitioner == petitioner) {\n                petitions[i] = petitions[petitions.length - 1];\n                delete petitions[petitions.length - 1];\n                // petitions.pop();\n                break;\n            }\n        }\n    }\n\n    //call this function to check if a voter has already voted for this petitioner\n    function checkIfVoted(\n        address _voter,\n        address[] memory _voters\n    ) public pure returns (bool) {\n        bool voted = false;\n        for (uint i = 0; i < _voters.length; i++) {\n            if (_voters[i] == _voter) {\n                voted = true;\n            }\n        }\n        return voted;\n    }\n\n    function checkIfVaccinationAuthority(\n        address _vacc\n    ) public view returns (bool trust) {\n        bool canWeTrust = false;\n        for (uint i = 0; i < authorities.length; i++) {\n            if (_vacc == authorities[i]) {\n                canWeTrust = true;\n                break;\n            }\n        }\n        return canWeTrust;\n    }\n\n    function registerUser(\n        string memory _id,\n        string memory _name,\n        string memory _gender,\n        string memory _nationality,\n        address _user_address\n    ) public onlyVaccinationAuthority {\n        require(\n            userExists(_id) == false,\n            \"Record already exists for this user\"\n        );\n        registered_users.push(_id);\n        records[_id].name = _name;\n        records[_id].gender = _gender;\n        records[_id].user_id = _id;\n        records[_id].createdBy = msg.sender;\n        records[_id].nationality = _nationality;\n        records[_id].user_address = _user_address;\n        records[_id].detailshash = calculateHash(_id);\n    }\n\n    function addVaccination(\n        string memory user_id,\n        string memory _vacName,\n        string memory _batchID,\n        string memory location,\n        string memory date\n    ) public onlyVaccinationAuthority {\n        require(userExists(user_id), \"User not yet registered\");\n        vaccine memory temp;\n        temp.name = _vacName;\n        temp.batch_id = _batchID;\n        temp.location = location;\n        temp.administrationDate = date;\n        temp.addedBy = msg.sender;\n        records[user_id].vaccinations.push(temp);\n        records[user_id].detailshash = calculateHash(user_id);\n    }\n\n    function userExists(string memory user_id) public view returns (bool) {\n        bool exists = false;\n        for (uint i = 0; i < registered_users.length; i++) {\n            if (\n                keccak256(bytes(user_id)) ==\n                keccak256(bytes(registered_users[i]))\n            ) {\n                exists = true;\n                break;\n            }\n        }\n        return exists;\n    }\n\n    //take and store hash of: cnic and name of all vaccines and their dates\n\n    function calculateHash(\n        string memory user_id\n    ) public view returns (bytes32) {\n        uint numVaccines = records[user_id].vaccinations.length;\n        string memory latestVaccine = \"\";\n        string memory latestVaccineDate = \"\";\n        if (numVaccines > 0) {\n            latestVaccine = records[user_id].vaccinations[numVaccines - 1].name;\n            latestVaccineDate = records[user_id]\n                .vaccinations[numVaccines - 1]\n                .administrationDate;\n        }\n        return (\n            keccak256(\n                abi.encodePacked(\n                    user_id,\n                    \",\",\n                    records[user_id].name,\n                    \",\",\n                    records[user_id].nationality,\n                    \",\",\n                    latestVaccine,\n                    \",\",\n                    latestVaccineDate\n                )\n            )\n        );\n    }\n\n    function getVaccinationRecord(\n        string memory user_id\n    ) public view returns (vaccination_record memory) {\n        require(\n            msg.sender == records[user_id].user_address ||\n                checkIfVaccinationAuthority(msg.sender),\n            \"Only the user themselves or a VA can view details\"\n        );\n        bytes memory tempEmptyStringTest = bytes(records[user_id].user_id);\n        require(\n            tempEmptyStringTest.length != 0,\n            \"vaccination record doesnt exist\"\n        );\n        return records[user_id];\n    }\n\n    function getVaccinationHash(\n        string memory user_id\n    ) public view returns (bytes32) {\n        return records[user_id].detailshash;\n    }\n\n    function getVaccinationRecordPublic(\n        string memory user_id\n    ) public view returns (string memory) {\n        bytes memory tempEmptyStringTest = bytes(records[user_id].user_id);\n        require(\n            tempEmptyStringTest.length != 0,\n            \"vaccination record doesnt exist\"\n        );\n        uint numVaccines = records[user_id].vaccinations.length;\n        string memory latestVaccine = \"\";\n        string memory latestVaccineDate = \"\";\n        if (numVaccines > 0) {\n            latestVaccine = records[user_id].vaccinations[numVaccines - 1].name;\n            latestVaccineDate = records[user_id]\n                .vaccinations[numVaccines - 1]\n                .administrationDate;\n        }\n        return (\n            string(\n                abi.encodePacked(\n                    user_id,\n                    \",\",\n                    records[user_id].name,\n                    \",\",\n                    records[user_id].nationality,\n                    \",\",\n                    latestVaccine,\n                    \",\",\n                    latestVaccineDate\n                )\n            )\n        );\n    }\n\n    function getVaccinationAuthorities()\n        public\n        view\n        returns (address[] memory)\n    {\n        return authorities;\n    }\n\n    function getAuthorityName(\n        address _add\n    ) public view returns (string memory) {\n        return authority_name[_add];\n    }\n\n}\n",
  "sourcePath": "/home/amar/Desktop/major_project/contracts/test.sol",
  "compiler": {
    "name": "solc",
    "version": "0.4.22+commit.4cb486ee.Emscripten.clang"
  },
  "schemaVersion": "3.4.11",
  "updatedAt": "2023-04-29T05:09:51.444Z",
  "networkType": "ethereum",
  "devdoc": {
    "methods": {}
  },
  "userdoc": {
    "methods": {}
  }
}